:100000000C9462000C948A000C948A000C948A0070
:100010000C948A000C948A000C948A000C948A0038
:100020000C948A000C948A000C948A000C948A0028
:100030000C948A000C948A000C948A000C948A0018
:100040000C946B030C948A000C948A000C948A0024
:100050000C948A000C948A000C948A000C948A00F8
:100060000C948A000C948A000000000024002700F1
:100070002A0000000000250028002B0000000008D6
:10008000000201000003040700000000000000005F
:1000900000000000230026002900040404040404D6
:1000A0000404020202020202030303030303010227
:1000B00004081020408001020408102001020408F6
:1000C0001020680511241FBECFEFD8E0DEBFCDBFE2
:1000D00011E0A0E0B1E0EEEAFBE002C005900D9275
:1000E000AC32B107D9F721E0ACE2B1E001C01D921A
:1000F000A935B207E1F710E0C2E6D0E004C02197CD
:10010000FE010E94CF05C136D107C9F70E94FA034C
:100110000C94D5050C940000AF92BF92CF92DF9261
:10012000EF92FF920F931F93CF93DF936C017B01AC
:100130008B01040F151FEB015E01AE18BF08C0173D
:10014000D10759F06991D601ED91FC910190F081B0
:10015000E02DC6010995892B79F7C501DF91CF9173
:100160001F910F91FF90EF90DF90CF90BF90AF90D5
:10017000089590E0FC01E458FF4F2491FC01E25502
:10018000FF4F3491FC01E656FF4FE491EE23C9F096
:10019000222339F0233001F1A8F4213019F1223063
:1001A00029F1F0E0EE0FFF1FEE58FF4FA591B4913B
:1001B0008FB7F894EC91611126C030953E233C93A3
:1001C0008FBF08952730A9F02830C9F0243049F7AF
:1001D000809180008F7D03C0809180008F77809315
:1001E0008000DFCF84B58F7784BDDBCF84B58F7D72
:1001F000FBCF8091B0008F778093B000D2CF8091F9
:10020000B0008F7DF9CF3E2BDACFCF93DF9390E014
:10021000FC01E255FF4F249186569F4FFC018491CB
:100220008823D1F090E0880F991FFC01E859FF4F17
:10023000A591B491FC01EE58FF4FC591D491623065
:1002400071F49FB7F8943C91822F809583238C930F
:10025000E8812E2B28839FBFDF91CF9108958FB720
:10026000F894EC912E2B2C938FBFF6CF3FB7F894D8
:100270008091310190913201A0913301B09134010C
:1002800026B5A89B05C02F3F19F00196A11DB11DF1
:100290003FBFBA2FA92F982F8827BC01CD01620F2D
:1002A000711D811D911D42E0660F771F881F991FE8
:1002B0004A95D1F708958F929F92AF92BF92CF92B5
:1002C000DF92EF92FF924B015C010E9436016B01BD
:1002D0007C010E9436016C197D098E099F09683ED8
:1002E000734081059105A8F321E0821A9108A108C5
:1002F000B10888EEC80E83E0D81EE11CF11C811401
:100300009104A104B10429F7FF90EF90DF90CF9002
:10031000BF90AF909F908F900895089590E080E0F7
:1003200008958F929F92AF92BF920F931F93CF9396
:10033000DF93CDB7DEB7A1970FB6F894DEBF0FBE3F
:10034000CDBF19A2423008F44AE08E010F5D1F4F65
:10035000842E912CB12CA12CA50194010E94990509
:10036000E62FB901CA01EA3044F5E05DD801EE9309
:100370008D01232B242B252B79F790E080E010971B
:1003800069F0FD0101900020E9F73197AF014A1BA8
:100390005B0BBD0181E491E00E948C00A1960FB639
:1003A000F894DEBF0FBECDBFDF91CF911F910F91AB
:1003B000BF90AF909F908F900895E95CD7CFFC01DC
:1003C00001900020E9F73197AF01481B590BBC01A0
:1003D00081E491E00C948C000F931F93462F90E0E2
:1003E000FC01E255FF4F6491FC01E656FF4FE4919A
:1003F0004111462FF0E0EE0FFF1FE057FF4F8591B0
:10040000949100E412E42FE030E00E94B5036115FE
:1004100071058105910529F06F5F7F4F8F4F9F4FC9
:100420009F701F910F910895CF93DF93EC0160E0CF
:100430008E810E94B90061E08E810E94B90060E067
:100440008E810E94B9008BE891E00197F1F7DF916E
:10045000CF910895CF92DF92EF92FF920F931F9367
:10046000CF93DF936C017C0187E0E80EF11CD0E0B4
:10047000C0E0062F10E0B8010C2E02C075956795FC
:100480000A94E2F76170F70181917F010E94B9003F
:100490002196C430D10579F7C601DF91CF911F9124
:1004A0000F91FF90EF90DF90CF900C941402CF92B9
:1004B000DF92EF92FF920F931F93CF93DF93EC01A4
:1004C000F62E642F8C810E94B9008D818F3F19F028
:1004D00060E00E94B9000F2D10E08F8584FF25C0D9
:1004E0006E0187E0C80ED11CF12CE12CB8010E2C56
:1004F00002C0759567950A94E2F76170F6018191E3
:100500006F010E94B900FFEFEF1AFF0A88E0E816BA
:10051000F10461F7CE01DF91CF911F910F91FF9010
:10052000EF90DF90CF900C941402B80184E07595A1
:1005300067958A95E1F7CE010E942A026F2DCE01C0
:10054000DF91CF911F910F91FF90EF90DF90CF90AF
:100550000C942A0240E0682F81E491E00C94570249
:10056000CF93DF93823029F490915001986090935B
:100570005001809354011092550180E480935601FC
:1005800080E18093570180E58093580161E080917C
:1005900045010E940501809146018F3F19F061E0FD
:1005A0000E94050161E0809147010E940501C1E4BC
:1005B000D1E09E01215431408091500184FD0BC057
:1005C00084E090E021962817390744F461E08E8199
:1005D0000E940501EECF88E090E0F4CF8BE39DE030
:1005E0000197F1F760E0809145010E94B90060E059
:1005F000809147010E94B900809146018F3F19F018
:1006000060E00E94B9008091500184FD39C063E030
:1006100081E491E00E942A02CBE4D6E4CE01019766
:10062000F1F763E081E491E00E942A022197F1F75B
:1006300063E081E491E00E942A0283E592E0019761
:10064000F1F762E081E491E00E942A02809150017A
:1006500080620E94AA0284E0809351018CE00E9493
:10066000AA0281E00E94AA028BE39FE10197F1F7C1
:1006700082E08093520186E0DF91CF910C94AA0230
:1006800080620E94AA028BE496E40197F1F78091C0
:10069000500180620E94AA0283E592E00197F1F77F
:1006A0008091500180620E94AA02D0CF90915401A3
:1006B000691710F06FEF690FE62FF0E0EF5BFE4F68
:1006C0009489890F80680C94AA0241E00E94570225
:1006D00081E090E008951F920F920FB60F921124BF
:1006E0002F933F938F939F93AF93BF9380912D014F
:1006F00090912E01A0912F01B091300130912C01E9
:1007000023E0230F2D3758F50196A11DB11D20932D
:100710002C0180932D0190932E01A0932F01B09373
:1007200030018091310190913201A0913301B0915B
:1007300034010196A11DB11D8093310190933201C6
:10074000A0933301B0933401BF91AF919F918F91EA
:100750003F912F910F900FBE0F901F90189526E894
:10076000230F0296A11DB11DD2CFCF92DF92EF923F
:10077000FF920F931F93E82FF92F05C00150110925
:100780002109310961F1908196239417B9F305C0CD
:10079000015011092109310911F190819623941317
:1007A000F7CFC12CD12CE12CF12C0AC08FEFC81A45
:1007B000D80AE80AF80A0C151D052E053F0579F040
:1007C00080818623841791F36C2D7D2D8E2D9F2D96
:1007D0001F910F91FF90EF90DF90CF90089560E010
:1007E00070E080E090E01F910F91FF90EF90DF901C
:1007F000CF900895789484B5826084BD84B581607B
:1008000084BD85B5826085BD85B5816085BD8091DB
:100810006E00816080936E00109281008091810053
:10082000826080938100809181008160809381004B
:10083000809180008160809380008091B10084600D
:100840008093B1008091B00081608093B00080916E
:100850007A00846080937A0080917A00826080932D
:100860007A0080917A00816080937A0080917A008A
:10087000806880937A001092C10082E00E94B002EA
:1008800084E191E00E94DF0161E080E00E94560374
:100890008CE191E00E94DF0188E40E94AA02C0E09E
:1008A000D1E008E011E0699181E491E00E946503E4
:1008B0000C171D07C1F760E089E00E94560361E054
:1008C00081E491E00E94650388E291E00E94DF01EB
:1008D00061E08DE00E9456038AE291E00E94DF0110
:1008E00068EE73E080E090E00E945B01C8E0D0E039
:1008F00007E010E068EE73E080E090E00E945B01AA
:1009000061E08BE00E94050160E08BE00E94B9008D
:1009100064E170E080E090E00E945B0161E08BE0C8
:100920000E94B90062E08BE00E94050160E08BE06C
:100930000E94EC0160933D0170933E0180933F0162
:100940009093400180913D0190913E01A0913F0123
:10095000B091400185359105A105B10508F047C06A
:1009600080913D0190913E01A0913F01B0914001E5
:1009700088349105A105B105D0F161E08BE00E94BA
:10098000EC0160933D0170933E0180933F01909391
:10099000400180913D0190913E01A0913F01B091B5
:1009A000400120913A0130913B014B97A105B105DF
:1009B00068F480913D0190913E01A0913F01B0917A
:1009C00040014497A105B10508F04DC080913D015B
:1009D00090913E01A0913F01B09140018B3491056F
:1009E000A105B10508F462C028323105F1F5F09097
:1009F00037018091350190913601890F9927991F10
:100A00008F0D911D20913801820F911D2091390188
:100A100028171906C9F4892BB9F060E087E00E9415
:100A200056036F2D70E090E080E04AE00E94910153
:100A300061E08BE00E9456036091350170E090E028
:100A400080E04AE00E94910110923B0110923A012D
:100A5000109239011092380110923701109236012C
:100A60001092350147CF10923C01F90137FD3796BE
:100A700083E0F595E7958A95E1F7EB5CFE4FE09012
:100A80003C01C901BE010E948505A801481B590B04
:100A900001C0EE0C4A95EAF78081E82AE0822F5FD8
:100AA0003F4F30933B0120933A0167CF80913D0146
:100AB00090913E01A0913F01B09140018134910598
:100AC000A105B10508F490CF81E080933C01CDCF22
:100AD000E1E4F1E0138212828CE091E09183808363
:100AE00084E084838FEF858385E08683178281E0AD
:100AF000808782E0818783E082871386148615864B
:100B00001686178681E00C94B00297FB072E16F428
:100B1000009407D077FD09D00E94BB0507FC05D0E3
:100B20003EF4909581959F4F0895709561957F4F04
:100B30000895A1E21A2EAA1BBB1BFD010DC0AA1F1E
:100B4000BB1FEE1FFF1FA217B307E407F50720F036
:100B5000A21BB30BE40BF50B661F771F881F991FB1
:100B60001A9469F760957095809590959B01AC01FA
:100B7000BD01CF010895AA1BBB1B51E107C0AA1FED
:100B8000BB1FA617B70710F0A61BB70B881F991F2E
:100B90005A95A9F780959095BC01CD010895EE0F67
:0E0BA000FF1F0590F491E02D0994F894FFCF0B
:100BAE0007050700000000000000000065038C0030
:100BBE008E018D0154656D70203D200048756D6964
:0C0BCE0064697479203D2000430025007C
:00000001FF
